{
    "contractName": "Election",
    "abi": [
        {
            "inputs": [],
            "stateMutability": "nonpayable",
            "type": "constructor"
        },
        {
            "inputs": [],
            "name": "candidate",
            "outputs": [
                {
                    "internalType": "string",
                    "name": "",
                    "type": "string"
                }
            ],
            "stateMutability": "view",
            "type": "function"
        },
        {
            "inputs": [
                {
                    "internalType": "uint256",
                    "name": "",
                    "type": "uint256"
                }
            ],
            "name": "candidates",
            "outputs": [
                {
                    "internalType": "uint256",
                    "name": "id",
                    "type": "uint256"
                },
                {
                    "internalType": "string",
                    "name": "name",
                    "type": "string"
                },
                {
                    "internalType": "uint256",
                    "name": "voteCount",
                    "type": "uint256"
                }
            ],
            "stateMutability": "view",
            "type": "function"
        },
        {
            "inputs": [],
            "name": "candidatesCount",
            "outputs": [
                {
                    "internalType": "uint256",
                    "name": "",
                    "type": "uint256"
                }
            ],
            "stateMutability": "view",
            "type": "function"
        }
    ],
    "bytecode": "608060405234801561001057600080fd5b5060408051808201909152600b81526a43616e646964617465203160a81b602082015260029061004090826100e5565b506101a4565b634e487b7160e01b600052604160045260246000fd5b600181811c9082168061007057607f821691505b60208210810361009057634e487b7160e01b600052602260045260246000fd5b50919050565b601f8211156100e057600081815260208120601f850160051c810160208610156100bd5750805b601f850160051c820191505b818110156100dc578281556001016100c9565b5050505b505050565b81516001600160401b038111156100fe576100fe610046565b6101128161010c845461005c565b84610096565b602080601f831160018114610147576000841561012f5750858301515b600019600386901b1c1916600185901b1785556100dc565b600085815260208120601f198616915b8281101561017657888601518255948401946001909101908401610157565b50858210156101945787850151600019600388901b60f8161c191681555b5050505050600190811b01905550565b6102e4806101b36000396000f3fe608060405234801561001057600080fd5b50600436106100415760003560e01c80632d35a8a2146100465780633477ee2e146100625780636c8381f814610084575b600080fd5b61004f60015481565b6040519081526020015b60405180910390f35b6100756100703660046101d2565b610099565b60405161005993929190610231565b61008c610144565b604051610059919061025a565b600060208190529081526040902080546001820180549192916100bb90610274565b80601f01602080910402602001604051908101604052809291908181526020018280546100e790610274565b80156101345780601f1061010957610100808354040283529160200191610134565b820191906000526020600020905b81548152906001019060200180831161011757829003601f168201915b5050505050908060020154905083565b6002805461015190610274565b80601f016020809104026020016040519081016040528092919081815260200182805461017d90610274565b80156101ca5780601f1061019f576101008083540402835291602001916101ca565b820191906000526020600020905b8154815290600101906020018083116101ad57829003601f168201915b505050505081565b6000602082840312156101e457600080fd5b5035919050565b6000815180845260005b81811015610211576020818501810151868301820152016101f5565b506000602082860101526020601f19601f83011685010191505092915050565b83815260606020820152600061024a60608301856101eb565b9050826040830152949350505050565b60208152600061026d60208301846101eb565b9392505050565b600181811c9082168061028857607f821691505b6020821081036102a857634e487b7160e01b600052602260045260246000fd5b5091905056fea26469706673582212204e2c7c69fe4e4988fef926334a67d384e006281453fc0a20c51ac8986dd0fad364736f6c63430008110033",
    "sourcePath": "/home/ouma/blockchain/contracts/Election.sol",
    "compiler": {
        "name": "solc",
        "version": "0.8.17+commit.8df45f5f"
    },
    "functionHashes": {
        "candidate()": "6c8381f8",
        "candidates(uint256)": "3477ee2e",
        "candidatesCount()": "2d35a8a2"
    },
    "gasEstimates": {
        "creation": {
            "codeDepositCost": "148000",
            "executionCost": "infinite",
            "totalCost": "infinite"
        },
        "external": {
            "candidate()": "infinite",
            "candidates(uint256)": "infinite",
            "candidatesCount()": "2262"
        }
    }
}